:020000040800F2
:10000000C8380020B9020008D51D0008FD1C0008F2
:100010005D1D000885190008DD6E00080000000065
:10002000000000000000000000000000F167000870
:10003000E51B00080000000013190008056900080E
:10004000D3020008D3020008D3020008D30200083C
:10005000D3020008D3020008D3020008D30200082C
:10006000D3020008D3020008D3020008D30200081C
:10007000D3020008D3020008D3020008D30200080C
:10008000D3020008D3020008D3020008D3020008FC
:10009000D3020008D3020008D3020008D3020008EC
:1000A000D3020008D3020008D3020008D3020008DC
:1000B000D302000881690008D3020008D3020008B7
:1000C000D3020008D3020008D3020008D3020008BC
:1000D000D3020008196B0008D3020008E96B00087E
:1000E000D3020008D3020008D3020008D30200089C
:1000F000D3020008D3020008D3020008D30200088C
:10010000D3020008D3020008D3020008D30200087B
:10011000D3020008D3020008D3020008D30200086B
:10012000D3020008D3020008D3020008D30200085B
:1001300000F002F800F0B0F80AA090E8000C824449
:100140008344AAF10107DA4501D100F0A5F8AFF226
:10015000090EBAE80F0013F0010F18BFFB1A43F0A5
:1001600001031847B07A0000D07A00000A444FF02B
:10017000000C10F8013B13F0070408BF10F8014B06
:100180001D1108BF10F8015B641E05D010F8016B4B
:10019000641E01F8016BF9D113F0080F1EBF10F8AF
:1001A000014BAD1C0C1B09D16D1E58BF01F801CBD2
:1001B000FAD505E014F8016B01F8016B6D1EF9D555
:1001C0009142D6D37047000000230024002500266A
:1001D000103A28BF78C1FBD8520728BF30C148BFAA
:1001E0000B6070476E2900F08981702900F0CB8286
:1001F000662907F09983652907F09683672907F038
:1002000093836129AFF3008003681B0A28BF41F084
:100210008001692900F03681642900F03381752955
:1002200000F030816F2900F05982782900F0978220
:10023000E92900F0F381E42900F0F081F52900F0CC
:10024000ED81EF2900F05682F82900F096820368CC
:10025000DB0928BF41F08001632900F0188673296B
:1002600000F01D86E32900F02886F32900F02D8692
:10027000002070471FB500F079FE04000020002127
:1002800007F03CFB401C60600020002107F020FBD1
:10029000E0601FBD10B510BD00F03BFE1146FFF73A
:1002A000E9FF06F0B9FF00F013FF03B4FFF7F2FF18
:1002B00003BC06F030FE00000948804709480047AB
:1002C000FEE7FEE7FEE7FEE7FEE7FEE7FEE7FEE706
:1002D000FEE7FEE704480549054A064B7047000063
:1002E0002169000831010008C8320020C838002008
:1002F000C8340020C834002072B6704762B6704718
:10030000EFF3108072B6704780F31088704730BFEB
:10031000704720BF7047B0FA80F0704790FAA0F0A5
:10032000B0FA80F0704790FAA0F070477047000074
:100330001CB50C46064B7B4469460090204600F0F5
:10034000F6F804460020694600F004F920461CBD7A
:100350001B02000030B505460B462A4613F8014B38
:1003600012F8010B08B1A042F8D01CB1002802D04D
:100370006D1CF1E7284630BD10B5431C02E010F8B3
:10038000011B71B18107FAD14FF0013202C88C1AFA
:100390008C4314EAC211F9D0C01A0A0603D0C01E59
:1003A00010BDC01A10BD0A0401D0801E10BD090284
:1003B000FCD0401E10BD704770477047704770B545
:1003C000044685690068C10601D5302600E0202674
:1003D000C00707D070BDD4E9012130469047206A9C
:1003E000401C20626D1EF6D570BD70B5044685694F
:1003F0000078C00707D170BDD4E9012120209047C3
:10040000206A401C20626D1EF6D570BD09684A0541
:1004100001D540B27047C905FCD500B270470968E4
:100420004A0501D5C0B27047C905FCD580B27047F6
:1004300070B50C460546012A05D02878800600D5FF
:10044000EA69002302E0012305E05B1C934202D22B
:10045000E05C0028F9D1A869E618C01AA861286AEA
:10046000184428622846FFF7AAFF04E0D5E90121D5
:1004700014F8010B9047B442F8D32846FFF7B5FFB4
:1004800070BD00002DE9F041064600241068752972
:10049000314616A510D0FFF7B9FF002802DA404216
:1004A00013A507E031688A0701D512A502E04907C4
:1004B00004D511A5012401E0FFF7B1FF00210A22B4
:1004C00006F1240709E0B0FBF2FCB0FBF2F302FBFB
:1004D0001C00303078541846491C0028F3D12346BC
:1004E0002A463046BDE8F04100F061BA0000000045
:1004F0002D0000002B0000002000000011680268A1
:10050000006A530501D508700AE0D30501D50880BB
:1005100006E0130603D5C217C1E9000200E0086037
:100520000120704701694A1C02610878704700B5D4
:100530008FB0CDE901310021059105497944CDE91C
:1005400003101146684600F029F90FB000BD000005
:10055000E5FFFFFF0A6802F8010B0A607047000020
:100560002DE9FF5F15468A460446DFF8AC80F84463
:100570000027D8E900103E46CDE9001010E03AF817
:1005800016106A4602A800F0A4FC411C07D021788E
:10059000890603D5E269391891420DD80744761CC3
:1005A0002078800602D5E069B84205DDAE42E6DB80
:1005B0003AF816000028E2D1A069C01BA0612046CD
:1005C000FFF7FDFED8E90010CDE90010002017E08C
:1005D0003AF818106A4602A800F07BFCB0F1FF3F21
:1005E00081460BD000250DF1080B05E0D4E901216F
:1005F0001BF8050090476D1C4D45F7D308F101002D
:10060000B0428046E4DB206A384420622046FFF78F
:10061000ECFEBDE8FF9F0000CA7500002DE9F04127
:100620008046D21D22F007020025D2E90002F529FA
:1006300015A614D0011E72F1000106DA0023D0EBDA
:10064000030063EB020211A608E0D8F800108B0744
:1006500001D50FA602E0490701D50EA601251146D6
:10066000002408F1240704E000F05CF930323A5528
:10067000641C50EA0102F7D12B463246214640461F
:10068000BDE8F04100F093B9000000002D0000002B
:100690002B0000002000000030B4002100F12404F1
:1006A00008E002F00705D208303542EA4372DB0861
:1006B0006554491C52EA0305F3D10468002310A2D3
:1006C000250708D504F020040C4304D0C469012395
:1006D0000CA2641EC46130BC00F069B910B50446B8
:1006E00021461068FFF79BFE02462046BDE81040F9
:1006F0000023D1E7D21D22F00701D1E90023CBE787
:100700000000000030000000F0B40D46018809052B
:1007100002D5214C7C4402E01F4C7C440E34002165
:1007200000F1240608E002F00F071209E75D42EA33
:1007300003721B097754491C52EA0307F3D102786C
:100740000023120704D5702D06D009B102231134FD
:100750002246F0BC00F02BB901231034F8E770B545
:1007600004460D4621461068FFF759FE0246294609
:100770002046BDE870400023C6E7D21D22F00703E3
:10078000D3E90023C0E70368126843F02003036045
:100790000823C3610023B7E72C7400002DE9F05F44
:1007A000894604464FF0000ADFF874B1FB44C0F8F4
:1007B00020A02046E1688847002874D0252806D06C
:1007C000D4E901219047206A401C2062F1E700260D
:1007D0005F462046E16888472028054607DB312D23
:1007E00005D2781910F8200C08B10643F1E7B007DC
:1007F00001D526F00406C4F81CA00027C4F818A0F0
:100800002A2D09D0284606F07FFB38B304EB870871
:10081000303DC8F8185019E059F8041B204604EB85
:1008200087029161E1688847012F054618D1E06988
:10083000002820DA26F020061DE0D8F8180000EB8A
:10084000800005EB40003038C8F818002046E16809
:100850008847054606F058FB0028EED1012F0AD044
:100860002E2D08D12046E16888477F1C0546022FBF
:1008700046F02006C4DBA069002803DA404246F0B7
:100880000106A061F00701D026F010066C2D0BD0F8
:10089000682D09D04C2D39D06A2D35D0742D35D026
:1008A0007A2D33D016E038E0E1682F46204688479D
:1008B000B842054609D16C2F26D04FF48060E1681C
:1008C000064320468847054604E06C2F1AD04FF4B3
:1008D000807006430DB3A5F14100192802D82035D8
:1008E00046F400664A462946204626604E46FFF7F3
:1008F00079FC80B101280BD0F61D26F0070000F12D
:10090000080956E74020E4E78020D8E70020D6E732
:1009100006F104094DE7284652E7206ABDE8F09F3A
:10092000BC73000030B5B0F10A024FEA900E71F1CD
:1009300000034EEA817EB0EB0E0061EB91014FEABD
:10094000101E4EEA017E10EB0E0041EB11114FEA32
:10095000102E4EEA016E10EB0E0041EB11214FEA12
:10096000104E4EEA014E10EB0E0041EB11414018C3
:1009700041F100014FEAD00040EA41704FEAD10155
:1009800010EB80054FEA810444EA907444EB0104C3
:100990006D1944EB0404521BA3414FF0000348BF00
:1009A0000A3200D530BD401C41F1000130BD2DE9B7
:1009B000F0470D4699469246044600F12408016826
:1009C000880604D5E06921F01001216000E00120D3
:1009D000A84201DD471B00E00027A1697A1902EB5C
:1009E0000900081AA0612078C00602D42046FFF74B
:1009F000E6FC002608E0D4E901211AF80600904739
:100A0000206A401C761C20624E45F4DB2078C0062C
:100A10000AD52046FFF7D3FC06E0D4E901213020B7
:100A20009047206A401C2062381EA7F10107F4DCC1
:100A300007E0D4E9012118F805009047206A401C1E
:100A40002062281EA5F10105F3DC2046FFF7CDFC4E
:100A50002078000602D50220BDE8F0870120FBE7E0
:100A600070472DE9FF4F0C461E464FF0FF378BB005
:100A7000D2E90001DDF860800A908A46C1F30A5588
:100A800005B93D46002108464FF00000BAF1000FBD
:100A900000F4400005DA00EB80004FF4400101EA69
:100AA00050004FEA9059B9F1010F00DDB9460A989C
:100AB00050EA4A000ED044F61050A5F2FF354543E7
:100AC0002F14B8F1000F1ED07542291E1EDDC9F18A
:100AD00000021CE0B8F1010F4FF0000001D03021FE
:100AE00003E0F24305E02154401CB042FBDB3046FA
:100AF0000022002121540B99C1F80880C1E900208F
:100B00000FB0BDE8F08FBD1B6D1CDEE74A4600DA72
:100B1000694206A800F06EFA06AB93E8070003AB43
:100B200083E8070050460A9900F01CFB8DE8070097
:100B3000A0F500501F3800900398002D09DD42F207
:100B40001F014A46084403A90390684600F07BFD54
:100B500008E0A0F500504A461F3803A903906846F4
:100B600000F085FD8DE807000004000C03D04FF075
:100B7000FF30410800E01046B8F1000F03D000221A
:100B8000009215461EE0751E05D4FFF7CBFE3032ED
:100B900062556D1EF9D5B3460122084302D00022EA
:100BA0007F1C04E02078302801D100227F1E002A1B
:100BB000099786D01DE0112D07DAFFF7B3FE30321A
:100BC00062556D1C50EA0102F5D1084302D000982D
:100BD000C8B10EE00021681E05E0235C625C63542E
:100BE0002254401E491C8142F7DBAB46A81B401E25
:100BF0000990002004F80B000B98099AC0F80880AF
:100C0000C0E9002B7CE711264FF0000859E72DE9D9
:100C1000F04F88460446D21D22F0070191B0D1E979
:100C20000001CDE90A0106F05BF902460B98C00FFE
:100C300001D02D2007E02068810701D52B2002E09C
:100C4000202101EAC000032A099001D0072A05DB10
:100C500003464146204600F08DF90BE120788006DE
:100C600001D5E06900E00620B8F1650F814606D0A5
:100C7000B8F1660F18D0B8F1670F70D131E00020DD
:100C8000B9F1110F009001DB112301E009F101031B
:100C90000AAA01A90CA8FFF7E4FEDDE90C70002602
:100CA00009F10105834647E001204B4600904FF0D3
:100CB00000470AAA01A90CA8FFF7D3FEDDE90DB091
:100CC0000C995D46002610B909F101000D18B9EB29
:100CD000050003D4C0F1FF3609F10105A5EB0900B9
:100CE0002BE0B9F1010F01DA4FF001090020B9F151
:100CF000110F0090484601DD112300E003460AAAC7
:100D000001A90CA8FFF7ADFEDDE90C704D460026E9
:100D10008346207800070AD4AB4500DA5D4601A877
:100D2000012D04DD411911F8011C302907D04F4570
:100D300002DA17F1040F04DA012082460FE06D1E7B
:100D4000EEE7002F02DCED1B3E4403E0781CA842D6
:100D500000DD7D1CB81B00F1010A4FF00047207830
:100D6000000703D4AA4501DB4FF0FF3A0021B7F199
:100D7000004F0DF143088DF8431024D002202B239F
:100D8000002F01DA7F422D230A21021EA0F101006B
:100D900000DC5FB197FBF1FC97FBF1F201FB1C7CDF
:100DA00017460CF1300C08F801CDEEE7A8F1010070
:100DB00003702188090501D5452100E06521A0F1D6
:100DC000010800F8011C09980FA9A1EB0807FF1DF5
:100DD00000B10120411901EBEA70A1693844081AF9
:100DE000401EA0612078C00602D42046FFF7E7FA33
:100DF000099828B1D4E901219047206A401C20625B
:100E00002078C00622D52046FFF7D9FA1EE0002E32
:100E100004DBB34502DD01A8805D00E03020D4E9A9
:100E200001219047206A401C2062761CAAF1010033
:100E30005FEA000A0AD100F099F8C0680168405CD6
:100E4000D4E901219047206A401C2062281EA5F1A8
:100E50000105DCDC07E0D4E9012118F8010B90471B
:100E6000206A401C2062381EA7F10107F3DC2046EF
:100E7000FFF7BBFA032011B043E610B5436913B185
:100E8000AFF3008001E0FFF7D3FA012010BD127824
:100E900000F124010A7000224A700122EDE7116876
:100EA0004FF0FF32E9E710B5436913B1AFF30080AB
:100EB00001E0FFF755FB012010BD128800F124016D
:100EC00082840022C2840122EDE711684FF0FF32D4
:100ED000E9E770B516460C46054600F03FF8036892
:100EE00093F80101012806D0FF2C0FD8185D68B1D6
:100EF00001202C7070BDD3F807013246214603F261
:100F0000071303442846BDE8704018474FF0FF30F0
:100F100070BD754600F0E2F8AE46050069465346DE
:100F200020F00700854618B020B5FFF7D3F9BDE8DB
:100F300020404FF000064FF000074FF000084FF040
:100F4000000B21F00701AC46ACE8C009ACE8C009D1
:100F5000ACE8C009ACE8C0098D46704710B500F098
:100F600005F8001D10BD00BF9569000000487047DE
:100F7000883200202DE9F0411F460446032601680F
:100F8000072A01F4006004DB08B116A505E016A5E8
:100F900003E008B115A500E015A521F010002060C0
:100FA000A069C01EA0610FB1401EA0612046FFF7DE
:100FB00006FA4FB1D4E9012138469047206A401C17
:100FC0002062C01C206206E0206AFAE7D4E9012111
:100FD00015F8010B9047761EF8D22046FFF705FA68
:100FE000BDE8F0814E414E006E616E00494E4600F4
:100FF000696E66002DE9F047814616468AB033488F
:1010000078440DC88DE80D0030487844801C03AC4E
:101010000DC884E80D0041F69B300844372190FB51
:10102000F1F290FBF1F5A5F1800501FB12041B3CE8
:1010300002D56442012000E00020DFF890A0804645
:101040000027FA44AAF1BE0A0DE0E00709D03246B3
:10105000684607EB47010AEB810100F008FB8DE8C9
:10106000070064107F1C002CEFD1184F7F44AC3F69
:1010700018E0E80714D007EB04100DF1180A90E807
:101080000E008AE80E00C068F04201D1981908905D
:10109000324606A903A800F0EAFA03AB83E807008A
:1010A0006D10641C002DE4D132466946B8F1000F82
:1010B00003A802D000F0C7FA01E000F0D8FAC9E9AD
:1010C0000001C9F808200AB0BDE8F087F86B0000FD
:1010D0000446AFF300802046FFF7E7F8004870476A
:1010E000683200204FF0013C50F8042B51F8043BCB
:1010F0009A4221D1A2EB0C03934313EACC1317D1EC
:1011000050F8042B51F8043B9A4215D1A2EB0C0382
:10111000934313EACC130BD150F8042B51F8043B42
:101120009A4209D1A2EB0C03934313EACC13DBD010
:101130004FF00000704700BFD01A01BAB1FA81F138
:1011400001F0180122FA01F0CB40C1F12001DBB21D
:10115000C0B2C01A2CFA01F3D11A914311EAC3119B
:10116000E6D170475FEA400C08BF91F0000F4FEAEC
:101170008C234FEAC12243EA51514FEA1C5018BF59
:1011800000F5F0404FEA300018BF41F000415FEA3F
:101190006C5C00F02980BCF1FF3F08BF40F080404C
:1011A0007047130C06BF12044FF0100C4FF0000CE8
:1011B000130E04BF12020CF1080C130F04BF12012E
:1011C0000CF1040C930F04BF92000CF1020CD30F2E
:1011D00004BF52000CF1010C11464FF00002A0F1C7
:1011E0001F00A0EB0C00704711F0004F08BF7047C4
:1011F00031F000413FF4D5AF0B0C06BF09044FF0AE
:10120000100C4FF0000C0B0E04BF09020CF1080C7F
:101210000B0F04BF09010CF1040C8B0F04BF8900F4
:101220000CF1020CCB0F04BF49000CF1010CCCF106
:101230002003A0EB0C0022FA03F302FA0CF241EABD
:10124000030100F10100704720F07F4C80EA0300A9
:1012500023F07F47ACEB070303F57C5300F000401D
:1012600003F1FF032DE980494FEA154B09B44FEA1A
:10127000144325EA0B4E24EA03480FF2042606EB3A
:10128000132749083E785FEA320203FB0667C7F579
:10129000000707FB06F64FEA54374FEAD64606F139
:1012A000020607FB066CCCF1005C4FEA1C472CEAF7
:1012B000074C07FB06F40CFB06F504EB15464FEA5A
:1012C000961634BF00204FF000404FEAD13706FB9E
:1012D00007FC4FEA1C4C0CFB0BF7D21B03FB0CF773
:1012E00061EB07010CFB0EF7B0EB074072EB174206
:1012F0000CFB08F734BFA2EB0742B2EB074261EBED
:1013000017414FEA0C444FEA910706FB07FC4FEAEE
:101310001C4C0CFB0BF7B0EBC74072EB573203FBD6
:101320000CF734BFA2EBC742B2EBC74261EB5731B7
:101330000CFB0EF7B0EBC70072EB57720CFB08F713
:1013400034BFA2EBC702B2EBC70261EB5771039F38
:101350004FEA816141EA921104EBCC044FEAD137A4
:101360004FEA826206FB07FC42EA90124FEA806075
:101370004FEA1C4C0CFB0BF7D21B03FB0CF761EB89
:1013800007010CFB0EF7B0EB074072EB17420CFBAA
:1013900008F734BFA2EB0742B2EB074261EB1741FB
:1013A0004FEA8C554FEA910704EB9C2406FB07FC9F
:1013B0004FEA1C4C0CFB0BF7B0EBC74072EB5732FB
:1013C00003FB0CF734BFA2EBC742B2EBC74261EBA1
:1013D00057310CFB0EF7B0EBC70072EB57720CFBEA
:1013E00008F734BFA2EBC702B2EBC70261EB57713B
:1013F00015EB4C254FEA816141EA92114FEA826276
:101400004FEAD13742EA901206FB07FC44F1000490
:101410004FEA80604FEA1C4C0CFB0BF7D21B03FB1E
:101420000CF761EB07010CFB0EF7B0EB074072EB1A
:1014300017420CFB08F734BFA2EB0742B2EB07429E
:1014400061EB174115EB1C154FEA813141EA9241DE
:101450004FEA823242EA90424FEA80304FEA0C76FD
:1014600044F1000448EA03434EEA0B484FF0000EF3
:10147000B2EB080C71EB030724BF624639464EEB12
:101480000E0E4FF0000B0018524149414BEB0B0B75
:10149000B2EB080C71EB03077BF1000B24BF624633
:1014A00039464EEB0E0E4FF0000B001852414941E9
:1014B0004BEB0B0BB2EB080C71EB03077BF1000B52
:1014C00024BF624639464EEB0E0E51EA020718BFA2
:1014D00046F0010616EB0E7655F1000254F10001BC
:1014E00003D5BDE88901BDE80088BDE88901BDE8F4
:1014F0000048B619524141EB0101A3F101037047C5
:1015000080807F7E7D7C7B7A797877767675747340
:10151000727171706F6E6E6D6C6C6B6A6A696868FF
:10152000676666656464636362616160605F5F5E95
:101530005E5D5D5C5C5B5B5A5A595958585757560B
:101540005655555554545353525252515150505070
:101550004F4F4F4E4E4D4D4D4C4C4C4B4B4B4A4AC2
:101560004A49494948484847474747464646454506
:10157000454444444443434343424242424141413F
:10158000002B26D4770021D01CB54FEA370703B4CF
:101590004FF010004FF010014FF000000FBCBDE8FD
:1015A00010400BF1010BBBF1010F08BF5FEA1707F9
:1015B00022BF12F1010211F101014FF0004143F18C
:1015C000000300F0004043EA00007047F9D35708D9
:1015D000DAE746EA064613F1400F4FEA16461FDDEA
:1015E00013F1200FDFBF16430A46002120335B4270
:1015F000C8D0C3F1200746EA064602FA07F74FEAC9
:10160000164646EA0706C3F1200722FA03F201FA5A
:1016100007F721FA03F14FF0000342EA0702B1E7AE
:1016200046EA020646EA06464FEA164646EA01063A
:10163000BCBF46EA0646360C4FF000034FF00002EE
:101640004FF000019EE72DE9C048934630B491E881
:10165000380007C831EA400C48BF34EA430C03D5D0
:10166000FFF7F2FDFFF78CFFF0BCBDE800882DE925
:10167000C048934630B491E8380007C810F0804F56
:1016800008BF13F0804F03D100F005F8FFF778FF93
:10169000F0BCBDE8008820F07F4780EA030023F01B
:1016A0007F4C07EB0C03A3F57C5300F00040A3F143
:1016B000FE0392F0000F00F0B38095F0000F00F0F1
:1016C00077802DE901494FEA11404FEA144621EA9B
:1016D000004800FB06FC24EA064708FB06F607FB69
:1016E00008F800FB07F718EB06484CEB164C4FEADE
:1016F000124B18EB07484FEA15464CEB174022EA0D
:101700000B4E0BFB06FC25EA06470EFB06F607FB15
:101710000EFE0BFB07F71EEB064E4CEB164C4FF084
:1017200000061EEB074E4CEB174B18EB0B0840F175
:10173000000018EB0E0B58EB000840F100008F1A68
:101740004FF000013CBFC943661B14BFB5EB040C4E
:1017500000213CBFC943F61B4FEA17444EEA8E0EE8
:1017600027EA04454FEA1C4704FB07622CEA074CB2
:1017700005FB07F70CFB05F604FB0CFC16EB074614
:1017800042EB174216EB0C4642EB1C421BEB0606E3
:1017900058EB0202414146EA9E0601D5BDE80189A7
:1017A000B619524141EB0101A3F10103BDE80189E2
:1017B0004FEA14454FEA114724EA054621EA074C4F
:1017C00005FB07F406FB07F70CFB06F105FB0CFC19
:1017D00011EB074144EB17444FEA124711EB0C4160
:1017E00044EB1C4422EA074C05FB07F206FB07F713
:1017F0000CFB06F605FB0CFC16EB074642EB17420A
:1018000016EB0C4642EB1C456A1854F1000148BF28
:101810007047B619524141EB0101A3F10103704732
:1018200095F0000F37D04FEA11424FEA144721EAF2
:10183000024624EA074C02FB07F106FB07F70CFB04
:1018400006F402FB0CFC14EB074441EB17414FEA92
:10185000154714EB0C4441EB1C4125EA074C02FBF5
:1018600007F506FB07F70CFB06F602FB0CFC16EB74
:10187000074645EB174516EB0C4645EB1C42121983
:1018800051F1000148BF7047B619524141EB0101C7
:10189000A3F1010370474FEA14454FEA114724EAC8
:1018A000054621EA074C05FB07F106FB07F70CFB91
:1018B00006F24FF0000605FB0CFC12EB074241EB71
:1018C000174112EB0C4251EB1C4148BF7047921874
:1018D00041EB0101A3F10103704700001D484FF6E1
:1018E000FF710170002080F309881B48016881F3B3
:1018F00008881A484FF08051016062B6FEE7174829
:101900004FF080510160704714484FF080510160E2
:10191000704772B6EFF3098028B1203880E8F00FE5
:101920000F490968086000B50E4880475DF804EB70
:101930000D480E490A78027009480D490A6802608C
:10194000106890E8F00F203080F309884EF0040E04
:1019500062B6704722ED00E02801002004ED00E0AF
:101960002001002001310008AE000020AF0000205F
:101970002401002000B585B0684604F0CFFE019830
:1019800005B000BD00BFFEE710B500F0FBF800F0A9
:1019900003F800F0F3F810BD70B5002600201849D8
:1019A00008801849088018490860184908601849D3
:1019B00008601849086018490860002400BFFEF755
:1019C0009FFC064600BF00250BE000201049086080
:1019D00000F074F800F08CF80D4800680444681CAE
:1019E00085B2002DF1D00C48046000200849086041
:1019F0000849086000BF3046FEF786FC00BF70BD96
:101A00003C0000203E000020400000204400002058
:101A10004C000020500000204800002001460846ED
:101A2000044A1268904203D9024A1268801A00E000
:101A3000002070474800002070B5002500BFFEF769
:101A40005FFC054600BF0648046800BF2846FEF755
:101A50005BFC00BF2046FFF7E1FF0646304670BD45
:101A60004C00002070B50025FFF7E6FF044600BFDC
:101A7000FEF746FC054600BF00200449086000BF91
:101A80002846FEF741FC00BF204670BD4C000020F8
:101A900070B5002500BFFEF733FC054600BF0648C1
:101AA000046800BF2846FEF72FFC00BF2046FFF762
:101AB000B5FF0646304670BD5000002010B50948FD
:101AC0000088401C074908800748008818B900F0C2
:101AD00083F80649086004480088401C02490880D1
:101AE00010BD00003C0000203E000020400000200F
:101AF00010B50F480088401E0D4908800846008830
:101B0000A0B900F069F80B490860084600680A4966
:101B10000968441A09480068A04201D207480460D5
:101B200007480068A04201D20548046010BD0000CB
:101B30003E00002044000020400000204C00002017
:101B40005000002010B5002400BF00BFFEF7D8FBF6
:101B5000044600BFFFF7B2FF00BF1021064800F0A7
:101B6000FFF800BFFFF7C4FF00BF2046FEF7CCFB25
:101B700000BF00BF10BD00005418002010B5FFF7D3
:101B8000E1FF10BD10B500200249086000F00AF81E
:101B900010BD0000380000200149086070470000B7
:101BA0003800002010B5FFF7E5FE0446084800683D
:101BB00040F08070064908600020064948600846E9
:101BC000006840F0010008602046FFF7E5FF10BD07
:101BD000FCED00E0001000E001494868704700009B
:101BE000001000E070472DE9F04102460025002674
:101BF000002000230024002791F803C00CF00F05FB
:101C000091F803C00CF0100CBCF1000F03D091F858
:101C100002C04CEA050591F800C0BCF1000F31D0BC
:101C2000146800202BE04FF0010C0CFA00F3B1F81F
:101C300000C00CEA03069E4220D183004FF00F0C37
:101C40000CFA03F7BC4305FA03FC4CEA040491F8D0
:101C500003C0BCF1280F06D14FF0010C0CFA00FCB8
:101C6000C2F814C00AE091F803C0BCF1480F05D1D6
:101C70004FF0010C0CFA00FCC2F810C0401C082800
:101C8000D1D31460B1F800C0BCF1FF0F34DD54684B
:101C900000202EE000F1080C4FF0010808FA0CF3C8
:101CA000B1F800C00CEA03069E4221D183004FF038
:101CB0000F0C0CFA03F7BC4305FA03FC4CEA0404CE
:101CC00091F803C0BCF1280F05D100F1080C08FA07
:101CD0000CF8C2F8148091F803C0BCF1480F07D18A
:101CE00000F1080C4FF0010808FA0CF8C2F8108057
:101CF000401C0828CED35460BDE8F08100BFFEE749
:101D000008B50121102004F0E9FCFF20ADF8000027
:101D100010208DF8030003208DF8020069460C485E
:101D2000FFF761FF00200B4908600B49C1F88401EF
:101D3000084908310860091D0860091D0860091D6F
:101D40000860091D08600449C1F89C0108BD000035
:101D500000100140800122420000224200BFFEE745
:101D600030B505460C4622460021284600F001F811
:101D700030BD2DE9F04103460C4617460FB9BDE8CA
:101D8000F08103B9FBE70025002202E02D02254384
:101D9000521C042AFAD3384603F0030C1946BCF14E
:101DA000000F08D0624603E001F8014B401E521CB0
:101DB00008B1042AF8D30E4601E020C6001F04280B
:101DC000FBD2314602E001F8014B401E0028FAD157
:101DD00000BFD4E77047000070B5002100230F2238
:101DE000C47804B3154C246804F4E064C4F5E064DA
:101DF000210AC1F10403CA40447804FA03F184784B
:101E00001440214309010E4C0678A155047804F0D2
:101E10001F050124AC4005786D11AD0005F1E025EA
:101E2000C5F8004109E0047804F01F050124AC4026
:101E3000044D0678761145F8264070BD0CED00E0A3
:101E400000E400E080E100E002490143024A116041
:101E5000704700000000FA050CED00E0704700003C
:101E600010B50348006810B101480068804710BDF4
:101E70006400002070B5044600F0C2F80020484914
:101E8000087048490870484908704849086048493E
:101E9000086048490870484908704849087048492E
:101EA000086048490860484908604849087048483F
:101EB00000680A21B0FBF1F0464908604648006816
:101EC00058B14648056845B14348066803E0761EA8
:101ED000002028602D1D002EF9D100204049086007
:101EE000404908604049086040490860404908602E
:101EF00040490860404908604049087002F052FBC0
:101F000002F050FC204601F0A9FC208800B170BD11
:101F1000204602F0C3F8208800B1F8E7204602F01E
:101F2000C9F8208800B1F2E7204602F0ADF9208818
:101F300000B1ECE7204602F065FB208800B1E6E73F
:101F4000204602F0CDFD208800B1E0E7204603F0F6
:101F500037F9208800B1DAE7204602F00BF8208834
:101F600000B1D4E7204601F015FE208800B1CEE78D
:101F7000204604F08DF9208800B1C8E7204603F020
:101F800063F8208800B1C2E7204604F0F1F9208808
:101F900000B1BCE701F088FBFFF760FF00BFB6E7C8
:101FA0007800002080000020C800002020010020D0
:101FB00024010020AE000020AF000020B00000206F
:101FC000BC000020C0000020C4000020D000002081
:101FD0008C790008CC0000205C7900085879000852
:101FE000580000205C0000206000002064000020F9
:101FF000680000206C00002070000020FE0000201F
:102000000A4A1168002002E0002204C1401C084A6C
:1020100012689042F8D3054A1268054B1B6802EB20
:102020008302121F034B1A607047000058790008A2
:102030005C7900082801002008480078012800D0B9
:10204000704707480078FA2800DBF9E70448007871
:10205000401C0349087000BFF2E700008000002028
:102060007800002010B500242E480078012800D008
:1020700010BD00BFFEF744F9044600BF2A480078AF
:1020800028B900BF2046FEF73FF900BFF0E7264819
:102090000078401E2449087008460078002805DDB5
:1020A00000BF2046FEF730F900BFE1E71F48007887
:1020B000002805DD00BF2046FEF726F900BFD7E760
:1020C00002F05CFA1A4908700846007800EB4000FC
:1020D000184951F820001849086008460068174957
:1020E0000968884205D100BF2046FEF70DF900BF00
:1020F000BEE711480068D0F89000401C0E490968FE
:10210000C1F890000E480068401C0D4908604FF06F
:1021100080500C49086000BF2046FEF7F5F800BF6C
:1021200000BFA5E78000002078000020C800002044
:10213000AF000020902E002024010020200100206C
:10214000F400002004ED00E010B5002420480078E1
:10215000002800DD10BD1F480078002800DDF9E7E9
:1021600000BFFEF7CDF8044600BF02F007FA1A4997
:1021700008700846007800EB4000184951F820002C
:10218000174908600846006816490968884205D161
:1021900000BF2046FEF7B8F800BFDBE71048006834
:1021A000D0F89000401C0E490968C1F890000E4814
:1021B0000068401C0C4908604FF080500B490860D3
:1021C00000BF2046FEF7A0F800BF00BFC2E7000036
:1021D00078000020C8000020AF000020902E0020D2
:1021E0002401002020010020F400002004ED00E084
:1021F00070B5044600251A480078002803DD46F62D
:102200006250208070BD17480078012803D045F641
:1022100089602080F6E714480078FA2803DB45F24D
:1022200009202080EEE700BF00BFFEF769F80546F1
:1022300000BFFFF743FC00BF0B480078401C0A4971
:10224000087002F093FB00BFFFF752FC00BF284666
:10225000FEF75AF800BF00BF0020208000BFD1E782
:102260007800002080000020C80000202DE9F04107
:1022700005460C461646002700BF00BFFEF740F893
:10228000074600BFFFF71AFC00BF012D03D0002056
:102290000E49087002E001200C49087014B10C4886
:1022A000046006E00B4800680A21B0FBF1F0084921
:1022B000086000BFFFF71CFC00BF3846FEF724F89B
:1022C00000BF00BF00203080BDE8F081D0000020BA
:1022D000CC0000208C79000870B504460025234806
:1022E0000078002803DD46F66550208070BD204848
:1022F0000078012803D045F689602080F6E71D4864
:10230000007818B946F664502080EFE700BF00BFA0
:10231000FDF7F6FF054600BFFFF7D0FB00BF1548ED
:102320000078401E134908700846007800280CDD2C
:1023300000BFFFF7DDFB00BF2846FDF7E5FF00BF4C
:1023400000BF46F663502080D0E702F01DFB00BFBF
:10235000FFF7CEFB00BF2846FDF7D6FF00BF00BF4A
:10236000FFF7F2FE0020208000BFBFE778000020CA
:1023700080000020C80000202DE9F04104460E46F0
:1023800017461D464FF0000830480078002804DD4D
:1023900042F6E1602880BDE8F0811CB945F6C350E3
:1023A0002880F8E700BF00BF00BFFDF7A9FF804607
:1023B00000BFFFF783FB00BF25480078401C24497D
:1023C000087008460078012801D102F0CFFA00BF5A
:1023D000FFF78EFB00BF4046FDF796FF00BF00BF32
:1023E00000BF1C482060276200206062666004F124
:1023F000080001F0DDFF204602F05AFB1648008875
:10240000401C1549088000BF00BF00BFFDF778FFE2
:10241000804600BFFFF752FB00BF0D480078401E0A
:102420000B4908700846007808B902F0ADFA00BF01
:10243000FFF75EFB00BF4046FDF766FF00BF00BF31
:1024400000BF0020288000BFA5E700007800002022
:10245000C800002053454D41D800002010B5044667
:1024600012480078E8B902F089F811490870084666
:102470000078104908700E48007800EB40000E49C3
:1024800051F820000D490860084600680C490860B2
:10249000012006490870FFF721FA43F699202080B1
:1024A00002E045F68A60208010BD00008000002018
:1024B000AF000020AE000020902E0020240100205C
:1024C000200100202DE9F04107464FF0000800BF31
:1024D00000BFFDF715FF804600BFFFF7EFFA00BF12
:1024E0000020474908604749088047490880474914
:1024F00008604749086047490860474908604749FC
:1025000008604749088100BFFFF7F2FA00BF404664
:10251000FDF7FAFE00BF00BF00BF00BFFDF7F0FEF1
:10252000804600BFFFF7CAFA00BF3E48046800BFFC
:10253000FFF7DEFA00BF4046FDF7E6FE00BF00BF32
:1025400026E000BF00BFFDF7DBFE804600BFFFF7BF
:10255000B5FA00BF00207834E06320642060206377
:10256000A061A082E0826062A062FFF735FB20627A
:10257000783C04F164060020B081D4F8C04000BF6C
:10258000FFF7B6FA00BF4046FDF7BEFE00BF00BF32
:10259000002CD6D100BF00BFFDF7B2FE804600BFC1
:1025A000FFF78CFA00BF2048056800BFFFF7A0FACC
:1025B00000BF4046FDF7A8FE00BF00BF16E000BF09
:1025C00000BFFDF79DFE804600BFFFF777FA00BF12
:1025D00005F120060020B081AD6900BFFFF788FA41
:1025E00000BF4046FDF790FE00BF00BF002DE6D1C2
:1025F00003F016FD03F0B8FF00203880BDE8F0813D
:10260000940000208E000020DE000020F00000205A
:1026100004010020100100207C000020C0000020E8
:10262000842E0020F8000020B4000020F8B50446F5
:1026300000266946364800F033FDBDF8000018B1A9
:10264000BDF800002080F8BD6A460021022000F09D
:10265000A9FDBDF8000018B1BDF800002080F2E728
:1026600000BF00BFFDF74CFE064600BFFFF726FA8D
:1026700000BF00202749086000BFFFF739FA00BFFC
:102680003046FDF741FE00BF00BF0025224800682C
:1026900022490968884205D91F4800681F4909680E
:1026A000B0FBF1F525B91C4800680A21B0FBF1F533
:1026B0006A460021284600F075FD6946144800F07E
:1026C000A5FABDF8000018B1BDF800002080BAE7F7
:1026D00000BF00BFFDF714FE064600BFFFF7EEF98E
:1026E00000BF00200E4908600A4800680D490860D4
:1026F00001200D49087000BFFFF7FAF900BF30460E
:10270000FDF702FE00BF00BF0020208000BF9AE757
:10271000A0310020E00000208C79000874790008C6
:10272000F0000020E4000020EC00002010B5034879
:10273000006810B101480068804710BD68000020A3
:102740002DE9FF4F87B004469046DDE91BA5DDE982
:102750001496179F0020039095480078002805DD07
:1027600047F24A1028800BB0BDE8F08F1CB947F241
:10277000AD102880F7E7B8F1000F03D147F24F10F2
:102780002880F0E71EB946F62F602880EBE78948DD
:102790000068874203D246F630602880E3E7169847
:1027A000B84203D346F631602880DCE7B9F1200F48
:1027B00003D346F273202880D5E7B9F1000F06D184
:1027C0007D48844203D046F273202880CBE7B9F1DC
:1027D0001F0F06D17948844203D046F27320288027
:1027E000C1E7204602F0FCFC002028800AF001002E
:1027F00090B10AF0020078B105960020069008E03A
:102800000021059801600598001D05900698401C60
:1028100006900698B842F3D3169806EB8000049011
:10282000CDE9007A32464046049B0A9900F0D8FB75
:102830000590C4F828800A98E0620898206284F81D
:102840003790059820600498A060199860651998E1
:1028500018B95B480068A06501E01998A0651A984E
:1028600060606662A763A4F83CA04FF0000B08E02C
:10287000002104F17C0040F82B100BF1010000F066
:10288000FF0BBBF1000FF3D004F16400189901F0C5
:1028900071FC204600F09EF800BF00BF00BFFDF7AE
:1028A0002FFD039000BFFFF709F900BF45480078EE
:1028B000401C4449087008460078012801D102F004
:1028C00055F800BFFFF714F900BF0398FDF71CFD92
:1028D00000BF00BF00BF94F8370001F06FFE204634
:1028E00001F0A8FF204602F031FC37480088401C68
:1028F0003549088035480078012837D000BF00BF2F
:1029000000BFFDF7FDFC039000BFFFF7D7F800BF45
:102910002C480078401E2B49087008460078D0B932
:1029200002F032F82A48008800280BDD00BFFFF7CC
:10293000DFF800BF0398FDF7E7FC00BF00BF01F020
:10294000E7FF11E000BFFFF7D3F800BF0398FDF7E2
:10295000DBFC00BF08E000BFFFF7CAF800BF039828
:10296000FDF7D2FC00BF00BF00BFFCE600BF00BF08
:1029700000BFFDF7C5FC039000BFFFF79FF800BF45
:1029800010480078401E0F4908700846007808B9C2
:1029900001F0FAFF00BFFFF7ABF800BF0398FDF7A7
:1029A000B3FC00BF00BF00BFFFF7CEFB00BFDAE6FD
:1029B0007800002088790008BC2D0020F42C00202D
:1029C000CC000020C8000020FC0000208000002077
:1029D0008C00002010B504460348006818B120465A
:1029E00001490968884710BD5800002070B50446A9
:1029F0000D46002678480078002803DD47F24E1087
:102A0000288070BD7548844203D147F24C1028805D
:102A1000F7E77348844203D147F24D102880F0E76E
:102A20009CB900BF00BFFDF76BFC064600BFFFF777
:102A300045F800BF6B48046800BFFFF759F800BFB6
:102A40003046FDF761FC00BF00BF00BF00BF00BF04
:102A5000FDF756FC064600BFFFF730F800BF62489E
:102A60000078401C6049087008460078012801D1B0
:102A700001F07CFF00BFFFF73BF800BF3046FDF7D9
:102A800043FC00BF00BF00BF94F8360008282DD2D9
:102A9000DFE800F004090E10080A0F11204601F0CB
:102AA00009FF5EE05DE000BF204603F09DFA58E0BC
:102AB00000BF00BF00BF204603F096FA94F8340030
:102AC000082810D2DFE800F004070508090A0B0601
:102AD00000BF00BF08E000BF00BF00BF00BF20462E
:102AE00001F09EFC00E000BF00BF3AE000BF00BF65
:102AF00000BFFDF705FC064600BFFEF7DFFF00BF85
:102B000039480078401E3849087008460078D0B926
:102B100001F03AFF3548008800280BDD00BFFEF7C2
:102B2000E7FF00BF3046FDF7EFFB00BF00BF01F03D
:102B3000EFFE11E000BFFEF7DBFF00BF3046FDF700
:102B4000E3FB00BF08E000BFFEF7D2FF00BF304646
:102B5000FDF7DAFB00BF00BF00BF46F62D602880FE
:102B60004FE700BF04F1640001F0E2FA204600F0F4
:102B700041F8204602F002FB1D480088401E1C4917
:102B80000880204602F02CFBFF2084F8360000BFAE
:102B900000BF00BFFDF7B4FB064600BFFEF78EFF87
:102BA00000BF11480078401E0F49087008460078A1
:102BB00008B901F0E9FE00BFFEF79AFF00BF3046FA
:102BC000FDF7A2FB00BF00BF00BF00202880FFF779
:102BD000BBFA00BF15E7000078000020F42C0020AD
:102BE000BC2D002020010020C80000208C00002007
:102BF000FC00002010B504460348006818B12046C8
:102C000001490968884710BD5C0000207FB5044673
:102C10000D46002600BF00BFFDF772FB064600BF51
:102C2000FEF74CFF00BF1CB11748006884420CD16E
:102C300000BFFEF75DFF00BF3046FDF765FB00BF3C
:102C400000BF47F2571028807FBD00BFFEF750FF3E
:102C500000BF3046FDF758FB00BF00BF0B480078AF
:102C600000280BDD0020009001900346024621461B
:102C7000CDE90205064800F0C5FFE5E729462046F4
:102C800002F05AFC00BFDFE720010020780000209E
:102C90005452455310B504460348006818B1204605
:102CA00001490968884710BD600000202DE9F04700
:102CB00080460E4614461D464FF000098C480078A9
:102CC000002805DD46F2AE1028800020BDE8F08720
:102CD0001EB1B6F5004F02D100E000BF04E045F69A
:102CE000256028800020F1E700BF0CB100202060A3
:102CF00000BF00BFFDF704FB814600BFFEF7DEFE0C
:102D000000BF7C480068406CB8B37A480068406CEB
:102D1000401E78490968486476480068476C1CB1D1
:102D200074480068006C2060FEF756FF714909681E
:102D3000096C401A6F490968C1F8A4006D48006821
:102D4000D0F8A8006B490968D1F8A410884207D2CE
:102D500068480068D0F8A40066490968C1F8A8006E
:102D600000BFFEF7C5FE00BF4846FDF7CDFA00BF25
:102D700000BF002028803846A8E7FFE706F400409F
:102D800068B100BFFEF7B4FE00BF4846FDF7BCFACD
:102D900000BF00BF46F2B0102880002096E75648DA
:102DA000007800280DDD00BFFEF7A2FE00BF4846F8
:102DB000FDF7AAFA00BF00BF46F663502880002046
:102DC00084E700BF4C480078401C4B490870084617
:102DD0000078012801D101F0C9FD00BFFEF788FE8F
:102DE00000BF4846FDF790FA00BF00BF00BF434652
:102DF00007220021084601F053FA00BF00BF00BFC0
:102E0000FDF77EFA814600BFFEF758FE00BF3A4844
:102E10000078401E384908700846007808B901F06B
:102E2000B3FD00BFFEF764FE00BF4846FDF76CFA35
:102E300000BF00BF00BFFFF787F900BF00BFFDF76D
:102E40005FFA814600BFFEF739FE00BF29480068DF
:102E500090F8350020B1012826D0032834D12CE089
:102E6000FCB124480068006C2060FEF7B5FE2149E3
:102E70000968096C401A1F490968C1F8A4001D4877
:102E80000068D0F8A8001B490968D1F8A41088424E
:102E900007D218480068D0F8A40016490968C1F89C
:102EA000A8000020288013E01CB112480068006CC4
:102EB000206046F2A91028800AE00CB100202060B2
:102EC00047F2D920288003E046F62E60288000BF14
:102ED00000BF08480068476C00BFFEF709FE00BF4E
:102EE0004846FDF711FA00BF00BF3846EEE6000085
:102EF0007800002020010020C80000202DE9F047C4
:102F000005460E4617461C464FF0000A3248007828
:102F1000002804DD47F259102080BDE8F0871EB973
:102F200046F2D5202080F8E71FB946F2D520208050
:102F3000F3E700BF00BFFDF7E3F9824600BFFEF7ED
:102F4000BDFD00BF0DB925480568286878B900BFE8
:102F5000FEF7CEFD00BF5046FDF7D6F900BF00BF1B
:102F600000203060386047F252102080D5E795F895
:102F70003C0000F0010078B900BFFEF7B9FD00BFCA
:102F80005046FDF7C1F900BF00BF00203060386037
:102F900047F254102080C0E700BFFEF7A9FD00BF34
:102FA0005046FDF7B1F900BF00BF4FF00008D5F85B
:102FB000249003E009F1040908F10108D9F80000A0
:102FC0000028F7D0C6F80080A86BA0EB0800386096
:102FD0000020208000BFA0E7780000202001002012
:102FE000F0B50446DDE9055602EB85004FF0807C24
:102FF000071F3846C7F800C0071F38463C60DFF897
:103000009CC0071F3846C7F800C04FF0123C071F8E
:103010003846C7F800C04FF0033C071F3846C7F8D2
:1030200000C04FF0023C071F3846C7F800C0071F1A
:1030300038463B60071F384639604FF0113C071F88
:103040003846C7F800C04FF0103C071F3846C7F895
:1030500000C04FF0093C071F3846C7F800C04FF0CA
:10306000083C071F3846C7F800C04FF0073C071F51
:103070003846C7F800C04FF0063C071F3846C7F86F
:1030800000C04FF0053C071F3846C7F800C04FF09E
:10309000043C071F3846C7F800C0F0BDB55600080D
:1030A0007FB505460C461248854203D147F25B10B6
:1030B00020807FBD0F48854203D147F25C102080FD
:1030C000F7E70D48007800280BDD00200090019004
:1030D000034602462946CDE90204084800F092FD65
:1030E000E7E72146284602F0C5FD00BFE1E7000002
:1030F000F42C0020BC2D00207800002054535553A0
:1031000070B52448006810B1224800688047FEF777
:1031100063FD04462048006820490968884215D0AC
:103120001D480068D0F89800201A1B490968C1F8AA
:10313000940019480068D0F89C0017490968D1F834
:103140009410084414490968C1F89C0013480068A9
:10315000C0F89840FEF786FC05460F480068D0F896
:10316000B400A84203D20C480068C0F8B4500A4822
:103170000068D0F8B8000A490968884205D20848B2
:10318000006805490968C1F8B800002004490860D2
:1031900070BD00006C0000202001002024010020F0
:1031A000C40000202DE9F04105460E4614460027D4
:1031B0004D480078002804DD47F275202080BDE8E6
:1031C000F0814A480078002803DD46F663502080ED
:1031D000F5E736B1022E05D0042E0AD0082E09D10B
:1031E00001E000BF00BF1DB947F27E202080E6E766
:1031F00004E003E045F625602080E0E700BF00BF63
:1032000000BF00BFFDF77CF8074600BFFEF756FC85
:1032100000BF36480078401C3449087008460078E2
:10322000012801D101F0A2FB00BFFEF761FC00BF45
:103230003846FDF769F800BF00BF00BF01202C49E8
:10324000096881F836002346324629462848006836
:1032500002F0ECFD2088F0B100BF00BF00BFFDF719
:103260004FF8074600BFFEF729FC00BF1F48007853
:10327000401E1E4908700846007808B901F084FB1A
:1032800000BFFEF735FC00BF3846FDF73DF800BF34
:1032900000BF00BF93E71648006801F00BFB00BFBA
:1032A00000BF00BFFDF72CF8074600BFFEF706FC85
:1032B00000BF0E480078401E0C4908700846007890
:1032C00008B901F061FB00BFFEF712FC00BF3846F1
:1032D000FDF71AF800BF00BF00BFFEF735FF002062
:1032E000208000BF6BE7000078000020C8000020AD
:1032F000200100202DE9FF5F05460E46174698463F
:10330000DDE90EA40020009081480078002804DD4B
:1033100047F275202080BDE8FF9F7E480078002896
:1033200003DD46F663502080F5E70AF00E0BBBF193
:10333000000F09D0BBF1020F07D0BBF1040F10D072
:10334000BBF1080F0ED101E000BF00BFB8F1000FC4
:1033500006D12FB926B91DB947F27E202080DAE7C1
:1033600004E003E045F625602080D4E700BF2AF0A2
:103370001E0008B1012000E00020039003980128FE
:1033800003D145F625602080C5E7CAF300100290FE
:103390000298C0B9B8F57A7F03D347F27B2020802A
:1033A000B9E73B2F03DD47F27A202080B3E73B2EBD
:1033B00003DD47F279202080ADE7632D12DD47F26F
:1033C00078202080A7E742F20F70864203DD47F2A3
:1033D000792020809FE7B5F57A7F03DB47F27820DC
:1033E000208098E74C48D0F800904FF4FA70B0FB7A
:1033F000F9F0404400FB09F04FF47A71B0FBF1F1B1
:103400004FF461606843C6EB061200EB820038445B
:1034100000FB091001900198002873D000BF00BF85
:1034200000BFFCF76DFF009000BFFEF747FB00BF39
:1034300038480078401C3749087008460078012851
:1034400001D101F093FA00BFFEF752FB00BF0098D4
:10345000FCF75AFF00BF00BF00BF01202F490968D9
:1034600081F8360023465A462C480199006802F03C
:10347000DDFC2088F0B100BF00BF00BFFCF740FFBB
:10348000009000BFFEF71AFB00BF22480078401EE4
:10349000204908700846007808B901F075FA00BFA5
:1034A000FEF726FB00BF0098FCF72EFF00BF00BF11
:1034B00000BF30E71948006801F0FCF900BF00BF09
:1034C00000BFFCF71DFF009000BFFEF7F7FA00BF3A
:1034D00010480078401E0F4908700846007808B967
:1034E00001F052FA00BFFEF703FB00BF0098FCF7A3
:1034F0000BFF00BF00BF00BFFEF726FE00202080AC
:1035000003E0FFE747F27E20208000BF03E70000D2
:1035100078000020C80000208C79000820010020DD
:1035200010B586B000F01EF8FEF756FB044605A85D
:1035300000210091CDE9011403900748007800EBC9
:103540004000064A02EB800100231A46044800F0BE
:1035500059FB06B010BD0000AE000020902E0020E8
:103560005449434B10B50348006810B10148006846
:10357000804710BD700000202DE9F84F04468846B2
:1035800016461F46DDE90BABDDF828900D9D0020A7
:10359000009041480078002804DD47F2433028803D
:1035A000BDE8F88F1CB945F6C3502880F8E7B9F19B
:1035B000010F08D0B9F1020F0BD11FB947F240300B
:1035C0002880EDE709E01EB947F23F302880E7E7A1
:1035D00003E045F625602880E2E700BF00BF00BF9A
:1035E00000BFFCF78DFE009000BFFEF767FA00BF3A
:1035F0002A480078401C29490870084600780128AC
:1036000001D101F0B3F900BFFEF772FA00BF0098D4
:10361000FCF77AFE00BF00BF00BF012084F82A003B
:103620001F482060C4F8048026620020A061E06189
:103630006762A4F82890C4F808A0C4F80CB0206110
:103640006061204602F080FE16480088401C154943
:10365000088000BF00BF00BFFCF752FE009000BF13
:10366000FEF72CFA00BF0D480078401E0B49087089
:103670000846007808B901F087F900BFFEF738FA6C
:1036800000BF0098FCF740FE00BF00BF00BF002055
:10369000288000BF84E7000078000020C8000020D8
:1036A000544D52200C010020254A2649264A274A1B
:1036B0002749284A2848294A294A2A4A2A4A2B4877
:1036C0002B482C482C4A2D482D4A2E482E4A2F484C
:1036D0002F4830483048314A314A324A3248334A1A
:1036E000334A3448344835483548364836483748F0
:1036F000374A384A384A394A39483A483A483B4AB8
:103700003B4A3C4A3C483D483D483E493E483F4A8A
:103710003F4A404A404A414A414A424A4248434A53
:10372000434A44484448454A454A4648464A474A27
:1037300047484848484800BF00BF00BF70470000E6
:10374000D0790008387B0008D1790008D2790008C8
:10375000D4790008D8790008DC790008D979000804
:10376000047A0008057A0008067A0008087A00083A
:103770000A7A00080C7A00080E7A0008107A00080D
:10378000307A0008327A0008347A0008367A000865
:10379000387A00083A7A00083C7A0008687A00080B
:1037A000697A00086A7A00086C7A00086E7A000864
:1037B0006F7A0008707A0008727A0008747A00083C
:1037C000767A0008787A00087A7A00087C7A00080D
:1037D000AC7A0008AD7A0008AE7A0008AF7A00082B
:1037E000B07A0008B27A0008B47A0008DC7A0008DF
:1037F000DD7A0008DE7A0008DF7A0008E07A000847
:10380000E27A0008E47A0008E87A0008E97A000819
:10381000EA7A0008EB7A0008EC7A0008ED7A0008F2
:10382000EE7A0008EF7A0008F07A0008F27A0008D1
:10383000F37A0008F47A0008F67A0008F87A0008AB
:10384000F97A0008FC7A0008307B0008317B000818
:10385000327B0008347B0008367B00080021034AD5
:103860001160034A11800180704700009800002019
:103870009C0000202DE9F04F85B004468946924611
:103880009B46DDF838800020009000BF00BFFCF7A9
:1038900037FD009000BFFEF711F900BFBAF1000F2D
:1038A0000AD0BAF1010F0DD0BAF5004F05D06FF470
:1038B0000040504460B906E000BF206A40EA0900B9
:1038C000206216E000BF206A20EA0900206210E0B2
:1038D00000BFFEF70DF900BF0098FCF715FD00BF13
:1038E00000BF45F62560A8F80000002005B0BDE83F
:1038F000F08F00BFC4F824B004F1080001900198D3
:10390000008968B900BFFEF7F3F800BF0098FCF724
:10391000FBFC00BF00BF0020A8F80000206AE5E71C
:1039200000BF71480078401C6F4908700846007855
:10393000012801D101F01AF800BFFEF7D9F800BF45
:103940000098FCF7E1FC00BF00BF00BF01980768CA
:10395000BD6889E07868029095F8880000F00F0053
:1039600003900398012821D002282ED0042802D0E9
:10397000082836D10EE0206AD5F8801000EA01064A
:10398000D5F88000B04204D15A463146284600F0AE
:10399000AFF863E0206AD5F8801000EA010626B18E
:1039A0005A463146284600F0A3F857E0D5F8800083
:1039B000216A20EA0106D5F88000B04204D15A46B7
:1039C0003146284600F094F848E0D5F88000216A96
:1039D00020EA010626B15A463146284600F088F80A
:1039E0003CE000BF00BF00BFFCF78AFC009000BFB6
:1039F000FEF764F800BF3C480078401E3A49087062
:103A000008460078D0B900F0BFFF38480088002889
:103A10000BDD00BFFEF76CF800BF0098FCF774FCEC
:103A200000BF00BF00F074FF11E000BFFEF760F8B8
:103A300000BF0098FCF768FC00BF08E000BFFEF77D
:103A400057F800BF0098FCF75FFC00BF00BF00BF45
:103A500043F6FF20A8F80000002047E700BF029FC0
:103A60000FB1BD6800E00025002D7FF473AF00BFEB
:103A700000BF00BFFCF744FC009000BFFEF71EF83B
:103A800000BF19480078401E1749087008460078A2
:103A900008B900F079FF00BFFEF72AF800BF0098D0
:103AA000FCF732FC00BF00BF00BF0AF4004008B9B9
:103AB000FEF74AFB00BF00BFFCF722FC009000BFEE
:103AC000FDF7FCFF00BF206A049000BFFEF710F86E
:103AD00000BF0098FCF718FC00BF00BF0020A8F84A
:103AE0000000049802E70000C80000208C000020BD
:103AF00070B504460E4615463434266500206070C5
:103B00002070E560A078343C082816D2DFE800F089
:103B1000040508090706101100BF00BF00BF0DE033
:103B200000BF204601F0FAFC002084F8360005E0D2
:103B300000BF042084F8360000E000BF00BF20462C
:103B400000F06EFC70BD0000002400BF1DE000BF4F
:103B500000BFFCF7D5FB044600BFFDF7AFFF00BF79
:103B60000A480068401C0949086009480068401C70
:103B70000749086000BFFDF7BBFF00BF2046FCF708
:103B8000C3FB00BF00BFFEF76BF9E0E77400002045
:103B9000E000002010B58AB0044600200E490860FD
:103BA0000B2000210591CDE90704069108460B4939
:103BB00009680B4A12680B4B1B68CDE90132CDE94D
:103BC00003101F200023084A08A100900C48FEF7AC
:103BD000B7FD0AB010BD0000740000203479000861
:103BE000307900082C790008493B000875432F4FB5
:103BF000532D4949492049646C65205461736B0019
:103C0000F42C00202DE9F84F04460D4616461F46B9
:103C1000DDE90BABDDF82890DDF834800020009062
:103C200000BF00BFFCF76CFB009000BFFDF746FF34
:103C300000BF2C4800882C49098888423EDA294870
:103C40000088401C27490880284800880988884245
:103C500003DA244800882549088025480068046064
:103C600023480068856022480068C66020480068D4
:103C700007821F480068C0F814901D480068A0F82B
:103C800018A01B480068C0F81CB0194800684068BC
:103C900017490860012017490881174808604860E3
:103CA000002000F08BFC1548007818B1134800780C
:103CB000134908700020A8F8000008E011480088A7
:103CC000401C1049088044F25360A8F8000000BF6F
:103CD000FDF70EFF00BF0098FCF716FB00BF00BF0A
:103CE000BDE8F88F8C000020407900088E0000208D
:103CF00084000020902E0020BC2D0020AE0000206B
:103D0000B0000020900000203EB5594800680068CF
:103D1000584A811A904279D00FDC5749084400284C
:103D20003ED056490844A8B155490844002860D0FF
:103D30005449084400286AD13FE053480844002809
:103D400050D052490844002862D051490844002804
:103D5000F1D110E002A8464D00902D68EB69444D6A
:103D60002D682A8B424D2D686969414D2D68A868E0
:103D7000FFF780FD7AE002A93D480068C0693C4D2C
:103D8000CDE900012D682B8B394D2D682A8A384DDD
:103D90002D68E968364D2D68A86800F03FFC65E0A5
:103DA000334B1B68DA69324B1B68198B304B1B682D
:103DB000986802AB00F0A0FE58E002A92C48006809
:103DC000C0692B4DCDE900012D682B8B284D2D6846
:103DD0002A8A274D2D68E968254D2D68A86801F0CD
:103DE00067FA43E022490968886802A901F0A4FB48
:103DF0003CE01F4B1B68DA691D4B1B68198B1C4B81
:103E00001B68986802AB01F061FC2FE007E02CE032
:103E100017490968886802A901F02CFF26E01D49AE
:103E2000097801EB41011C4A02EB810000F0CAFD58
:103E30000F48006802AB0021C269184801F046FC37
:103E400017480068401E164908600846006858B9BF
:103E5000144800680860FDF7BFFE044602AB224626
:103E60000021114801F032FC00E000BF00BF3EBD60
:103E7000880000205449434BADBAB2BE0DF90BFA8D
:103E8000F2F8F7FF0006F6FF00F7FDF700FFEFFF7F
:103E900003FE0FFEB0000020902E0020D83000203E
:103EA0001C01002018010020A0310020002700BFC5
:103EB00056E0002652E000BF00BFFCF721FA07469B
:103EC00000BFFDF7FBFD00BF2648008898B9002021
:103ED000254908810860486000F082FB00BFFDF7BB
:103EE00007FE00BF3846FCF70FFA00BF00BFFEF721
:103EF0002BF9012632E000BFFDF7FAFD00BF38467E
:103F0000FCF702FA00BF00BFFDF766FE0546FFF7AB
:103F1000FBFEFDF761FE441B14480068A04201D27D
:103F20001248046000BF00BFFCF7EAF9074600BF73
:103F3000FDF7C4FD00BF0E48006840680C490860EA
:103F400008480088401E0749088000BFFDF7D0FDE3
:103F500000BF3846FCF7D8F900BF00BF002EAAD03A
:103F6000A7E700008C000020902E00209400002085
:103F700088000020F0B589B005460020314908804E
:103F80003148006820B944F25260288009B0F0BD81
:103F90002E480088022803DA44F254602880F5E7AE
:103FA00000202B4908602848046826462036002750
:103FB0000CE0284820600020A060E0602082606162
:103FC0002083666020342036781C87B21F48008822
:103FD0008742EEDB203C1C48066866601E4806608F
:103FE0001E48066000201E4908801E4908801E48A1
:103FF000006818B944F255602880C7E71B4800687C
:104000001B490968884203D244F256602880BDE704
:10401000032000210591CDE90705069113480068AA
:10402000144A1268104B1B68CDE90301CDE9013237
:1040300000910B46104A11A11748FEF781FB00BF03
:10404000A4E70000900000203C79000840790008B7
:10405000940000204E4F4E45840000208800002030
:104060008C0000208E00002048790008507900085C
:10407000887900084C790008AD3E000875432F4F41
:10408000532D494949204953522051756575652082
:104090005461736B00000000BC2D00200021034A16
:1040A0001160034A1180018070470000A0000020C9
:1040B000A400002070B501461A4D2D681DB945F2C7
:1040C0001E750D8070BD184D2D881DB945F21D75EA
:1040D0000D80F7E7134D28682A681032124D2D889D
:1040E0006D1EACB2002308E002600025456005812A
:1040F000C560103010325D1CABB2A342F4DB00256A
:10410000056045600581C560064D2D68074E356028
:10411000054D2D88B5800025F58035810D8000BFC7
:10412000D0E700006C79000864790008842E002034
:1041300010B5014648894B89002B17DD0A680C4BE6
:104140001B6813600A4C4B6823602346DB884C894C
:104150001B1B074CE38023469B884C892344044C5B
:10416000A38000234B818B810B604B6010BD00004E
:10417000842E0020018100224281828102604260FF
:10418000704700002DE9F0410D46DDE90674B0F8F6
:104190000AC0B0F80880C44505DB46F2935CA4F879
:1041A00000C0BDE8F081DFF8DCC0BCF804C0BCF1A1
:1041B000000F04D145F21D7CA4F800C0F1E7DFF840
:1041C000C4C0DCF80010DFF8BC80D1F800C0C8F82B
:1041D00000C0C446BCF804C0ACF1010CA8F804C08F
:1041E000C446BCF806C00CF1010CA8F806C0C446D1
:1041F000BCF808C0B8F80680C44507DADFF884C008
:10420000BCF806C0DFF87C80A8F808C0B0F80AC087
:10421000BCF1000F0AD1016041604FF0010CA0F821
:104220000AC04FF0000CC1F800C017E003F0100CFA
:10423000BCF1000F07D10668316001604FF0000C3F
:10424000C1F800C004E0D0F804C0C1F800C041606B
:10425000B0F80AC00CF1010CA0F80AC0B0F80CC00C
:10426000B0F80A80C44503DAB0F80AC0A0F80CC060
:104270004D600A81CF604FF0000CA4F800C000BF71
:104280008FE70000842E00200021034A1160034ABA
:104290001180018070470000A8000020AC000020C1
:1042A0002DE9F04105460C4616461F4615480068A4
:1042B00080F8346000201349096881F835003946D8
:1042C0001048006800F026FF6CB104F10808EC60AB
:1042D000012229460B48006800F016F8294640469E
:1042E00000F06BF806E0002006490968C887054918
:1042F0000968086303480168204600F019F8BDE822
:10430000F08100002001002010B5C2870163002366
:104310000AE000244C600C600C614C610C83CC61A1
:10432000886020315C1CA3B29342F2DB10BD000018
:1043300030B548B14568C1F8C45000F1080422689E
:1043400093681D6AC56113E091F83450022D02D0C4
:10435000072D08D103E007A5C1F8C45007E007A561
:10436000C1F8C45003E008A5C1F8C45000BF00BFA5
:1043700030BD00005461736B205100005461736BB9
:104380002053656D000000002000000030B507A537
:10439000C1F8C45000F1080422681AB193681D6A7C
:1043A000C56101E001A5C56130BD0000200000002D
:1043B00000210160416001817047F0B58E6896F878
:1043C000375007893FB90127078100274F600F60E9
:1043D0000160416023E007897F1C0781026806E0D5
:1043E000946894F83770AF4200DD02E05268002A0A
:1043F000F6D100BF32B900274F6043680B605960A7
:1044000041600CE017682FB9116000270F604A6007
:10441000016004E013680B604A6059601160F0BDF0
:104420002DE9F0410446256BE68F0AE0D5F80C80B3
:1044300008F108072946384600F00AF82035701EB2
:1044400086B2002EF2DC0020E0872063BDE8F08118
:1044500010B50489012C03D100240460446011E0EC
:104460000C6824B94A680024146002600AE04C68B1
:1044700024B90B6800245C60436003E00B684A6861
:104480005A6013600489641E048100244C600C602F
:1044900010BD2DE9F84306460C4617469846089D80
:1044A00094F83600082850D2DFE800F00405080927
:1044B00006072B2C00BF00BF00BF47E000BF94F8E9
:1044C0003400032807D143463A462146304600953A
:1044D00000F03FF803E0E765A4F86080256436B19A
:1044E0002046FFF79DFF21463046FFF74FFF20464D
:1044F00001F014F800203434A070607004F834091E
:1045000024E000BF94F83400032807D143463A461C
:1045100021463046009500F01CF803E0E765A4F85A
:1045200060802564204601F05FFD36B12046FFF72C
:1045300077FF21463046FFF729FF04203434A0706E
:104540000020607004F8340900E000BF00BFBDE83F
:10455000F883F0B50446059E086BCD8F0AE0C76866
:10456000A74204D1046142610383C66104E02030A4
:104570006F1EBDB2002DF2DC00BFF0BD70B500258E
:10458000074C03E005F12000C5B2241D2068002877
:10459000F8D02068FBF7BFFE2844C5B2284670BD9E
:1045A00054000020002004E00021034A42F82010BB
:1045B000401C0028F8D070475400002030B5420954
:1045C00000F01F030121C3F11F04A140034C54F864
:1045D00022400C43014D45F8224030BD54000020DC
:1045E00030B5420900F01F030121C3F11F04A140AF
:1045F000034C54F822408C43014D45F8224030BD15
:10460000540000200021034A1160034A11800180F8
:1046100070470000B4000020B80000202DE9F04FE2
:1046200085B007468A4693461C460020029000BF8C
:1046300000BF00BFFBF764FE029000BFFDF73EFA2B
:1046400000BF56480078401C54490870084600785E
:10465000012801D100F08AF900BFFDF749FA00BF37
:104660000298FBF751FE00BF00BF00BF07F108062C
:10467000308900284CD104F0100010B94FF0000828
:1046800001E04FF01008DDE90E0143465A46CDE93E
:104690000001514607F12000FFF774FD00BF00BF85
:1046A00000BFFBF72DFE029000BFFDF707FA00BF29
:1046B0003A480078401E3949087008460078D0B959
:1046C00000F062F93648008800280BDD00BFFDF7D6
:1046D0000FFA00BF0298FBF717FE00BF00BF00F003
:1046E00017F911E000BFFDF703FA00BF0298FBF7CE
:1046F0000BFE00BF08E000BFFDF7FAF900BF02980B
:10470000FBF702FE00BF00BF00BF05B0BDE8F08FA1
:1047100004F4007008B1358900E00125D6F8009056
:1047200011E0D9F808000390D9F8040004900E981D
:104730005B465246009038460399FFF7AAFEDDF823
:104740001090681E85B2002DEBD100BF00BF00BFE6
:10475000FBF7D6FD029000BFFDF7B0F900BF0F4890
:104760000078401E0D4908700846007808B900F02E
:104770000BF900BFFDF7BCF900BF0298FBF7C4FDC1
:1047800000BF00BF00BF04F4004008B9FDF7DCFC27
:1047900000210F98018000BFB7E70000C80000208B
:1047A0008C00002000210AE001EB4102054B03EBE5
:1047B000820000220281026042604A1CD1B220299C
:1047C000F2D37047902E002010B5044694F83700BD
:1047D000FFF7F4FE94F8370005490978884203D1C1
:1047E000204600F027F802E0204600F003F810BD54
:1047F000AE00002010B590F8373003EB43030C4CAB
:1048000004EB83010B893BB901230B810023C360B7
:1048100003610860486009E00B895B1C0B810B6831
:10482000C360002303610A681061086010BD0000C6
:10483000902E002010B590F8373003EB43030B4C5B
:1048400004EB83010B893BB901230B810023C36077
:1048500003610860486008E00B895B1C0B81002342
:10486000C3604A680261D060486010BD902E00208D
:1048700010B501460C8924B1012C03D0022C0CD1B7
:1048800001E000BF14E008684A6802610024C460C7
:104890001461D0600A6048600AE008684A68C3682A
:1048A00000241C61C4600261D0600B60486000BFDE
:1048B00000BF10BD2DE9F041054695F8370000EB2B
:1048C0004000124901EB80042F69EE6887B946B9B0
:1048D000002020812060606095F83700FFF780FE9F
:1048E0000EE02089401E208100203061266007E014
:1048F0002089401E2081FE600EB9676000E03761AC
:1049000000202861E860BDE8F0810000902E0020C2
:1049100010B5002400BFFBF7F3FC044600BF0020E5
:104920000D4908700D480E49086008460068D0F827
:104930009000401C0968C1F890000A480068401CBB
:10494000084908604FF080500749086000BF2046C2
:10495000FBF7DAFC00BF10BDAF000020BC2D00202B
:1049600024010020F400002004ED00E010B504480C
:104970000078012803D1FDF72FF90249086010BD26
:10498000C8000020BC00002010B50A48007880B99B
:10499000FDF722F908490968441A08480068A0424E
:1049A00001D20648046006480068A04201D20448CB
:1049B000046010BDC8000020BC000020C000002022
:1049C000C400002070B5054600263548007801284F
:1049D00000D070BD00BF00BFFBF792FC064600BFD1
:1049E000FDF76CF800BF2C684CB900BFFDF780F8EC
:1049F00000BF3046FBF788FC00BF00BFE9E729484D
:104A0000844209D100BFFDF773F800BF3046FBF7C1
:104A10007BFC00BF00BFDCE7A06D10B1A06D401EA5
:104A2000A065A06D48B100BFFDF762F800BF304639
:104A3000FBF76AFC00BF00BFCBE72889022809DA30
:104A400000BFFDF755F800BF3046FBF75DFC00BF27
:104A500000BFBEE714480078002809DD00BFFDF75D
:104A600047F800BF3046FBF74FFC00BF00BFB0E780
:104A70002846FFF7FDFE2C68606D18B90B480068EA
:104A8000A06501E0606DA06500BFFDF731F800BFD3
:104A90003046FBF739FC00BF00BF00BF99E70000BC
:104AA000D0000020F42C0020C8000020CC00002002
:104AB00009A1C161002141610849096811B90021BA
:104AC000816105E005490968816104490968486117
:104AD000024908607047000020000000D400002058
:104AE0000021034A1160034A1180018070470000D1
:104AF000D4000020D80000202DE9FF5F044688463E
:104B000091461D460020019000BF00BFFBF7F8FB57
:104B1000019000BFFCF7D2FF00BF04F108073889FD
:104B2000002857D10420012804D0022816D00428D8
:104B30003AD127E0206AFF280FD100BFFCF7D8FF49
:104B400000BF0198FBF7E0FB00BF00BF46F6C55071
:104B50002880002004B0BDE8F09F26E04FF6FF71EA
:104B6000206A88420DD100BFFCF7C2FF00BF019848
:104B7000FBF7CAFB00BF00BF46F6C55028800020E7
:104B8000E8E712E0206A401C68B900BFFCF7B0FFFC
:104B900000BF0198FBF7B8FB00BF00BF46F6C55049
:104BA00028800020D6E700E000BF00BF206A401C3C
:104BB0002062D4F820A0C4F8249000BFFCF798FF2E
:104BC00000BF0198FBF7A0FB00BF00BF00202880BA
:104BD0005046BFE700BF2D480078401C2B490870A5
:104BE00008460078012801D1FFF7C0FE00BFFCF79E
:104BF0007FFF00BF0198FBF787FB00BF00BF00BF2E
:104C000008F4007008B13E8900E00126D7F800B032
:104C100011E0DBF808000290DBF8040003900023A9
:104C20001A46CDF8009020460299FFF732FCDDF8D5
:104C30000CB0701E86B2002EEBD1D4F820A000BFBD
:104C400000BF00BFFBF75CFB019000BFFCF736FF25
:104C500000BF0E480078401E0C49087008460078D6
:104C600008B9FFF791FE00BFFCF742FF00BF0198B3
:104C7000FBF74AFB00BF00BF00BF08F4004008B9C3
:104C8000FDF762FA00202880504663E7C800002044
:104C900086B00020009000BF06E0D94909684800AE
:104CA00001AA0021FEF77EFAD64800780128F4D147
:104CB00001A8FDF707FC0027D3480068D049096820
:104CC000884205D9D0480068CD490968B0FBF1F7A2
:104CD00027B9CD4800680A21B0FBF1F78EE1FCF757
:104CE0007BFF8246FCF7D4FEC849086000BF00BFC6
:104CF000FBF706FB009000BFFCF7E0FE00BFC448D6
:104D00000068C44908600020C149086000BFFCF782
:104D1000EFFE00BF0098FBF7F7FA00BF00BFBE48E8
:104D20000068BC490968884248D9BB480068BB494B
:104D3000884205D242F2107003900120029023E0D5
:104D4000B5480068B649884205D24FF47A7003909E
:104D50000A20029018E0B0480068B249884203D2A5
:104D60006420039002900FE0AB480068AE4988428F
:104D700005D20A2003904FF47A70029004E00120DB
:104D8000039042F210700290A34801680298B1FBB0
:104D9000F0F9A049039809684843B0FBF9F042F2E2
:104DA0001071081AA1490880A14800880988884222
:104DB00008DA9E4800889E49088003E042F210709D
:104DC0009A490880FDF7B2FC002500BF00BFFBF741
:104DD00097FA009000BFFCF771FE00BF9548046889
:104DE00000BFFCF785FE00BF0098FBF78DFA00BFFF
:104DF00000BF72E000BF00BF00BFFBF781FA009068
:104E000000BFFCF75BFE00BF8B480078401C8A495E
:104E1000087008460078012801D1FFF7A7FD00BF00
:104E2000FCF766FE00BF0098FBF76EFA00BF00BFFC
:104E300000BF54F89C0F6060002044F89C0900BF3C
:104E400000BF00BFFBF75CFA009000BFFCF736FE26
:104E500000BF79480078401E7749087008460078FE
:104E6000D0B9FFF791FD7548008800280BDD00BF21
:104E7000FCF73EFE00BF0098FBF746FA00BF00BFFC
:104E8000FFF746FD11E000BFFCF732FE00BF0098BF
:104E9000FBF73AFA00BF08E000BFFCF729FE00BFAD
:104EA0000098FBF731FA00BF00BF00BFD4F8A000A4
:104EB000054400BF00BFFBF723FA009000BFFCF7DA
:104EC000FDFD00BFD4F8C04000BFFCF711FE00BFDD
:104ED0000098FBF719FA00BF00BF002C8AD145B338
:104EE0004E48854205D242F2107005904FF0010BFA
:104EF0001BE04B48854205D24FF47A7005904FF085
:104F00000A0B12E04748854203D26420059083468D
:104F10000BE04548854204D20A2005904FF47A7B85
:104F200003E00120059042F2107BB5FBFBF00490FA
:104F300003E0002005900120049000BF00BFFBF7B4
:104F4000DFF9009000BFFCF7B9FD00BF39480468E5
:104F500000BFFCF7CDFD00BF0098FBF7D5F900BFFF
:104F600000BF2FE0D4F8A000059948430499B0FB96
:104F7000F1F086B242F21070864200D90646A4F8DB
:104F80008C60B4F88E00B04201DAA4F88E6001ABF8
:104F900004F1AC02111D2046FDF7B0FF00BF00BFB9
:104FA000FBF7AEF9009000BFFCF788FD00BFD4F816
:104FB000C04000BFFCF79CFD00BF0098FBF7A4F9C0
:104FC00000BF00BF002CCDD11D480078012805D1BD
:104FD00000201B49087001A8FDF774FAFCF7FCFDDE
:104FE000A0EB0A0817480068404502D21548C0F8EF
:104FF000008001AA00213846FEF7D4F86FE60000D1
:1050000074790008EC0000208C7900087C000020F6
:10501000E0000020E8000020E4000020801A0600E4
:1050200000093D00005A62020084D717DC0000200E
:10503000DE000020F8000020C80000208C000020C6
:10504000DA000020F000002010B58AB004460020ED
:105050001F4908601F4908601F4908601F49087000
:105060001F4908701F48006820B946F62B60208051
:105070000AB010BD1C4800681C490968884203D268
:1050800046F62C602080F3E7194800781F2803D3E8
:1050900046F62A602080EBE7032000210591CDE948
:1050A00007040691084610490968124A12680D4B18
:1050B0001B68CDE90132CDE903100D4800780023CB
:1050C0000D4A0EA100901248FDF73AFB00BFCFE752
:1050D000E0000020E8000020E4000020EC000020B8
:1050E000DA000020787900088079000888790008C3
:1050F000707900087C790008914C000875432F4FA7
:10510000532D4949492053746174205461736B00D5
:105110001030002038B504460D4685B16B4602229A
:105120002946204600F082FEBDF8000018B9032091
:1051300084F8360006E0022084F8360002E00220FF
:1051400084F836002046FFF7B5FB38BD0021C0F8D3
:10515000BC100949096819B90021C0F8C01007E05E
:1051600005490968C0F8C01003490968C1F8BC00C6
:105170000149086070470000F8000020D0F8BC200A
:10518000D0F8C0104AB90D4B196011B10023C1F815
:10519000BC300023C0F8C0300FE029B90023C2F8AA
:1051A000C030C0F8BC3008E0C2F8C010C1F8BC2064
:1051B0000023C0F8C030C0F8BC307047F8000020B1
:1051C0000021044A1160044A1180044A11600180E0
:1051D00070470000F8000020FC000020F4000020D0
:1051E00070B5044600202060A0606060E06020612F
:1051F0006061A061E0612BA0206200206062A0627B
:10520000E0622063E0872064E065A4F8600000218C
:1052100004F16400FEF7AEFF002044F8740F6060F4
:10522000E060A0822061743C002506E0002104F1CA
:105230007C0040F82510681CC5B2002DF6D0002077
:105240003434206120676067606084F85600E0674E
:10525000A06720814FF0004060610020A061E06104
:1052600020626062A4F85800A4F85A00E065206645
:10527000FCF7B2FC064666660020A066C4F8800013
:10528000C4F8840020706070A0702020E0700020BE
:10529000C4F88800C4F88C0004A0C4F89000343C22
:1052A00070BD00003F5461736B00000020000000DF
:1052B0002DE9FC4704460F4690469946DDE90A650C
:1052C0004FF0000A00BF00BF00BFFBF719F882468D
:1052D00000BFFCF7F3FB00BF8D480078401C8C49F1
:1052E000087008460078012801D1FFF73FFB00BF96
:1052F000FCF7FEFB00BF5046FBF706F800BF00BFFF
:1053000000BF0CB9834804680020288094F8360058
:1053100008287CD2DFE800F00405484906074A4B1C
:1053200000BF00BF00BF4B464246394604F164004F
:10533000CDE90065FEF726FF00BF00BF00BFFAF70A
:10534000DFFF824600BFFCF7B9FB00BF7048007862
:10535000401E6F49087008460078D0B9FFF714FB6B
:105360006D48008800280BDD00BFFCF7C1FB00BFC3
:105370005046FAF7C9FF00BF00BFFFF7C9FA11E0B6
:1053800000BFFCF7B5FB00BF5046FAF7BDFF00BFFA
:1053900008E000BFFCF7ACFB00BF5046FAF7B4FFD3
:1053A00000BF00BF00BFAFE000BF00BF00BF94F868
:1053B000340002282CD143463A462146002000966C
:1053C000FFF767F800BF00BF00BFFAF799FF8246FA
:1053D00000BFFCF773FB00BF4D480078401E4C49EE
:1053E00008700846007808B9FFF7CEFA00BFFCF74E
:1053F0007FFB00BF5046FAF787FF00BF00BF00BF2A
:1054000009F40040002843D1FCF79EFE40E040E054
:105410004B464246394604F16400CDE90065FEF78B
:10542000B1FE00BF00BF00BFFAF76AFF824600BFAF
:10543000FCF744FB00BF36480078401E3449087032
:1054400008460078D0B9FFF79FFA33480088002853
:105450000BDD00BFFCF74CFB00BF5046FAF754FFD2
:1054600000BF00BFFFF754FA11E000BFFCF740FB9C
:1054700000BF5046FAF748FF00BF08E000BFFCF746
:1054800037FB00BF5046FAF73FFF00BF00BF00BF29
:105490003AE000BF00BF00BFFAF732FF824600BF0C
:1054A000FCF70CFB00BF1A480078401E1849087032
:1054B00008460078D0B9FFF767FA17480088002837
:1054C0000BDD00BFFCF714FB00BF5046FAF71CFFD2
:1054D00000BF00BFFFF71CFA11E000BFFCF708FB9C
:1054E00000BF5046FAF710FF00BF08E000BFFCF70E
:1054F000FFFA00BF5046FAF707FF00BF00BF00BF2A
:1055000046F62D60288000BF00BFBDE8FC87000084
:10551000C8000020200100208C00002010B50446A7
:10552000204600F061FD94F8360000F0040010B948
:105530002046FFF749F910BD70B504460D46002618
:1055400000BF00BFFAF7DCFE064600BFFCF7B6FA64
:1055500000BF0020288094F8360008287ED2DFE8BB
:1055600000F00405060714566A8000BF00BF00BFA4
:1055700000BFFCF7BDFA00BF3046FAF7C5FE00BF1A
:1055800000BF47F2531028808CE000BF48480078E5
:10559000401C4749087008460078012801D1FFF7F0
:1055A000E5F900BFFCF7A4FA00BF3046FAF7ACFEFD
:1055B00000BF00BF00BF14F88A0F401E207014F80F
:1055C0008A0928B9002084F836002046FFF7A6FF94
:1055D00000BF00BF00BFFAF793FE064600BFFCF70E
:1055E0006DFA00BF32480078401E31490870084605
:1055F000007808B9FFF7C8F900BFFCF779FA00BFD7
:105600003046FAF781FE00BF00BF00BF4AE014F841
:105610008A0F401E207014F88A0910B9012084F8FE
:10562000360000BFFCF764FA00BF3046FAF76CFEA4
:1056300000BF00BF36E014F88A0F401E207014F837
:105640008A0910B9022084F8360000BFFCF750FA2E
:1056500000BF3046FAF758FE00BF00E015E000BF7B
:1056600020E014F88A0F401E207014F88A0910B93F
:10567000032084F8360000BFFCF73AFA00BF30463A
:10568000FAF742FE00BF00BF0CE000BFFCF730FAA3
:1056900000BF3046FAF738FE00BF00BF46F62D6067
:1056A000288070BD00BFFCF74FFD00BFF9E7000088
:1056B000C800002008B504480068FDF7EBFA694609
:1056C0000020FDF793F908BD200100202DE9F843E3
:1056D0000446884617461D464FF0000900BF00BF2C
:1056E00000BFFAF70DFE814600BFFCF7E7F900BFE7
:1056F000FB480078401CFA490870084600780128E9
:1057000001D1FFF733F900BFFCF7F2F900BF4846BB
:10571000FAF7FAFD00BF00BF00BF0CB9F1480468FA
:1057200027640020288094F8360008287AD2DFE821
:1057300000F00405FEFD0607FCFB00BF00BF00BF34
:105740000420012804D0022843D004286BD184E02F
:10575000606CFF283CD100BF00BF00BFFAF7D0FD4E
:10576000814600BFFCF7AAF900BFDD480078401E63
:10577000DB49087008460078D0B9FFF705F9DA4828
:10578000008800280BDD00BFFCF7B2F900BF4846D7
:10579000FAF7BAFD00BF00BFFFF7BAF811E000BF8B
:1057A000FCF7A6F900BF4846FAF7AEFD00BF08E0D7
:1057B00000BFFCF79DF900BF4846FAF7A5FD00BF02
:1057C00000BF00BF46F6C55028800020BDE8F88322
:1057D00085E04FF6FF71606C88423DD100BF00BF8D
:1057E00000BFFAF78DFD814600BFFCF767F900BFE7
:1057F000BB480078401EBA49087008460078E0B9F6
:10580000FFF7C2F8B848008800280DDD00BFFCF79C
:105810006FF900BF4846FAF777FD00BF00BFFFF7FA
:1058200077F813E0E2E159E000BFFCF761F900BF4F
:105830004846FAF769FD00BF08E000BFFCF758F9D9
:1058400000BF4846FAF760FD00BF00BF00BF46F644
:10585000C55028800020B9E741E0606C401CD8BBEF
:1058600000BF00BF00BFFAF74BFD814600BFFCF749
:1058700025F900BF9A480078401E994908700846EB
:105880000078D0B9FFF780F89748008800280BDD32
:1058900000BFFCF72DF900BF4846FAF735FD00BF01
:1058A00000BFFFF735F811E000BFFCF721F900BF9A
:1058B0004846FAF729FD00BF08E000BFFCF718F9D9
:1058C00000BF4846FAF720FD00BF00BF00BF46F604
:1058D000C5502880002079E7FFE700E000BF00BF47
:1058E000606C401C6064666C00BF00BF00BFFAF7CC
:1058F00007FD814600BFFCF7E1F800BF784800785B
:10590000401E7749087008460078F8B9FFF73CF860
:1059100075480088002810DD00BFFCF7E9F800BFDB
:105920004846FAF7F1FC03E01EE01CE01AE018E03C
:1059300000BF00BFFEF7ECFF11E000BFFCF7D8F896
:1059400000BF4846FAF7E0FC00BF08E000BFFCF7E4
:10595000CFF800BF4846FAF7D7FC00BF00BF00BF32
:1059600080E100BF00BF00BF94F8340007282CD1AD
:1059700000231A46214618460097FEF78AFD666CFA
:1059800000BF00BF00BFFAF7BBFC814600BFFCF7B9
:1059900095F800BF52480078401E514908700846EB
:1059A000007808B9FEF7F0FF00BFFCF7A1F800BFD0
:1059B0004846FAF7A9FC00BF00BF00BF08F400404A
:1059C000002801D1FCF7C0FB0FE10420012804D01E
:1059D000022842D0042872D189E0606CFF283BD1B4
:1059E00000BF00BF00BFFAF78BFC814600BFFCF789
:1059F00065F800BF3A480078401E394908700846EB
:105A00000078D0B9FEF7C0FF3748008800280BDDCA
:105A100000BFFCF76DF800BF4846FAF775FC00BF01
:105A200000BFFEF775FF11E000BFFCF761F800BF93
:105A30004846FAF769FC00BF08E000BFFCF758F8D9
:105A400000BF4846FAF760FC00BF00BF00BF46F643
:105A5000C55028800020B9E68BE04FF6FF71606CDE
:105A6000884243D100BF00BF00BFFAF749FC81461E
:105A700000BFFCF723F800BF19480078401E184902
:105A8000087008460078D8B9FEF77EFF16480088EF
:105A900000280BDD00BFFCF72BF800BF4846FAF7E3
:105AA00033FC00BF00BFFEF733FF12E000BFFCF77E
:105AB0001FF800BF4846FAF727FC00BF09E057E08F
:105AC00000BFFCF715F800BF4846FAF71DFC00BF01
:105AD00000BF00BF46F6C5502880002076E60000D3
